:100000000C942A000C94F7050C942A060C945D06B7
:100010000C9447000C9447000C9498110C946511B3
:100020000C9432110C94FF100C94CC100C94991079
:100030000C9447000C9447000C9447000C94470024
:100040000C9447000C9447000C9447000C94470014
:100050000C94470011241FBECFE5D8E0DEBFCDBF12
:1000600010E0A0E6B0E0E2E3F7E202C005900D92F6
:10007000AA37B107D9F710E0AAE7B0E001C01D9296
:10008000A739B107E1F70E94CB110C9497130C9498
:100090000000DF93CF93CDB7DEB728970FB6F89463
:1000A000DEBF0FBECDBF8A836B834C8319828B81E9
:1000B000883008F0EBC08C81813009F06EC08A81F5
:1000C000282F30E038872F838F81988581309105E4
:1000D00041F12F813885223031052CF48F819885AC
:1000E000009761F057C02F8138852230310561F1CA
:1000F0008F81988583309105D1F14CC0AAE3B0E09F
:10010000EAE3F0E040818B81282F30E081E090E04D
:10011000022E02C0880F991F0A94E2F7842B8C9359
:10012000B7C0A7E3B0E0E7E3F0E040818B81282F80
:1001300030E081E090E0022E02C0880F991F0A94FF
:10014000E2F7842B8C93A4C0A4E3B0E0E4E3F0E0F6
:1001500040818B81282F30E081E090E0022E02C0A8
:10016000880F991F0A94E2F7842B8C9391C0A1E326
:10017000B0E0E1E3F0E040818B81282F30E081E0C6
:1001800090E0022E02C0880F991F0A94E2F7842B98
:100190008C937EC081E089837BC08C81882309F0A9
:1001A00072C08A81282F30E03E832D838D819E810D
:1001B0008130910549F12D813E81223031052CF4A9
:1001C0008D819E81009761F05BC02D813E81223040
:1001D000310571F18D819E8183309105E9F150C027
:1001E000AAE3B0E0EAE3F0E040818B81282F30E021
:1001F00081E090E0022E02C0880F991F0A94E2F776
:10020000809584238C9344C0A7E3B0E0E7E3F0E05B
:1002100040818B81282F30E081E090E0022E02C0E7
:10022000880F991F0A94E2F7809584238C9330C03D
:10023000A4E3B0E0E4E3F0E040818B81282F30E0DC
:1002400081E090E0022E02C0880F991F0A94E2F725
:10025000809584238C931CC0A1E3B0E0E1E3F0E03F
:1002600040818B81282F30E081E090E0022E02C097
:10027000880F991F0A94E2F7809584238C9308C015
:1002800081E0898305C081E0898302C081E08983A0
:10029000898128960FB6F894DEBF0FBECDBFCF91EF
:1002A000DF910895DF93CF93CDB7DEB728970FB6D0
:1002B000F894DEBF0FBECDBF8A836B834C83198257
:1002C0008B81883008F0EBC08C81813009F06EC0E2
:1002D0008A81282F30E038872F838F81988581305D
:1002E000910541F12F813885223031052CF48F8121
:1002F0009885009761F057C02F81388522303105ED
:1003000061F18F81988583309105D1F14CC0ABE3C9
:10031000B0E0EBE3F0E040818B81282F30E081E01A
:1003200090E0022E02C0880F991F0A94E2F7842BF6
:100330008C93B7C0A8E3B0E0E8E3F0E040818B81A4
:10034000282F30E081E090E0022E02C0880F991F34
:100350000A94E2F7842B8C93A4C0A5E3B0E0E5E314
:10036000F0E040818B81282F30E081E090E0022E88
:1003700002C0880F991F0A94E2F7842B8C9391C0D6
:10038000A2E3B0E0E2E3F0E040818B81282F30E08F
:1003900081E090E0022E02C0880F991F0A94E2F7D4
:1003A000842B8C937EC081E089837BC08C818823E1
:1003B00009F072C08A81282F30E03E832D838D8121
:1003C0009E818130910549F12D813E812230310598
:1003D0002CF48D819E81009761F05BC02D813E8160
:1003E0002230310571F18D819E8183309105E9F1D3
:1003F00050C0ABE3B0E0EBE3F0E040818B81282F0D
:1004000030E081E090E0022E02C0880F991F0A942C
:10041000E2F7809584238C9344C0A8E3B0E0E8E33E
:10042000F0E040818B81282F30E081E090E0022EC7
:1004300002C0880F991F0A94E2F7809584238C9359
:1004400030C0A5E3B0E0E5E3F0E040818B81282FE8
:1004500030E081E090E0022E02C0880F991F0A94DC
:10046000E2F7809584238C931CC0A2E3B0E0E2E322
:10047000F0E040818B81282F30E081E090E0022E77
:1004800002C0880F991F0A94E2F7809584238C9309
:1004900008C081E0898305C081E0898302C081E0D2
:1004A0008983898128960FB6F894DEBF0FBECDBF31
:1004B000CF91DF910895DF93CF93CDB7DEB7279724
:1004C0000FB6F894DEBF0FBECDBF8A836B835D830A
:1004D0004C8319828B81883008F07CC08C819D818F
:1004E000009709F474C08A81282F30E03F832E835F
:1004F0004E815F814130510559F18E819F8182305B
:10050000910534F42E813F812115310569F05CC0DD
:100510004E815F814230510579F18E819F81833018
:10052000910509F43DC050C0E9E3F0E08081282F37
:1005300030E08B81882F90E0A90102C05595479546
:100540008A95E2F7CA018170EC81FD81808344C005
:10055000E6E3F0E08081282F30E08B81882F90E067
:10056000A90102C0559547958A95E2F7CA018170A5
:10057000EC81FD81808330C0E3E3F0E08081282FAF
:1005800030E08B81882F90E0A90102C055954795F6
:100590008A95E2F7CA018170EC81FD8180831CC0DD
:1005A000E0E3F0E08081282F30E08B81882F90E01D
:1005B000A90102C0559547958A95E2F7CA01817055
:1005C000EC81FD81808308C081E0898305C082E0E1
:1005D000898302C081E08983898127960FB6F894C8
:1005E000DEBF0FBECDBFCF91DF910895DF93CF93D4
:1005F00000D000D00F92CDB7DEB78A836B8319820B
:100600008A81282F30E03D832C838C819D8181302D
:100610009105D1F02C813D81223031052CF48C8163
:100620009D81009761F01FC02C813D8122303105F2
:1006300081F08C819D818330910581F014C0EAE3C3
:10064000F0E08B81808311C0E7E3F0E08B81808351
:100650000CC0E4E3F0E08B81808307C0E1E3F0E0CD
:100660008B81808302C081E0898389810F900F9004
:100670000F900F900F90CF91DF910895DF93CF935C
:1006800000D000D00F92CDB7DEB78A836B8319827A
:100690008A81282F30E03D832C838C819D8181309D
:1006A0009105D1F02C813D81223031052CF48C81D3
:1006B0009D81009761F01FC02C813D812230310562
:1006C00081F08C819D818330910581F014C0EBE332
:1006D000F0E08B81808311C0E8E3F0E08B818083C0
:1006E0000CC0E5E3F0E08B81808307C0E2E3F0E03B
:1006F0008B81808302C081E0898389810F900F9074
:100700000F900F900F90CF91DF910895DF93CF93CB
:1007100000D000D00F92CDB7DEB78A836B831982E9
:100720008B81883008F06EC08A81282F30E03D83AD
:100730002C838C819D818130910541F12C813D81FB
:10074000223031052CF48C819D81009761F057C0D7
:100750002C813D812230310561F18C819D81833076
:100760009105D1F14CC0ABE3B0E0EBE3F0E04081A8
:100770008B81282F30E081E090E0022E02C0880FAC
:10078000991F0A94E2F784278C933EC0A8E3B0E057
:10079000E8E3F0E040818B81282F30E081E090E0B9
:1007A000022E02C0880F991F0A94E2F784278C93C7
:1007B0002BC0A5E3B0E0E5E3F0E040818B81282F7A
:1007C00030E081E090E0022E02C0880F991F0A9469
:1007D000E2F784278C9318C0A2E3B0E0E2E3F0E0F4
:1007E00040818B81282F30E081E090E0022E02C012
:1007F000880F991F0A94E2F784278C9305C081E043
:10080000898302C081E0898389810F900F900F90C6
:100810000F900F90CF91DF910895DF93CF93CDB7D5
:10082000DEB7A5E5B0E0E5E5F0E0808181608C937E
:10083000A5E5B0E0E5E5F0E0808182608C93A5E578
:10084000B0E0E5E5F0E0808184608C93A5E5B0E060
:10085000E5E5F0E0808188608C93A4E5B0E0E4E514
:10086000F0E0808180648C93ABE5B0E0EBE5F0E0F4
:10087000808180648C93ABE5B0E0EBE5F0E08081B3
:1008800080688C93ABE5B0E0EBE5F0E080818062BE
:100890008C93CF91DF910895DF93CF93CDB7DEB7DF
:1008A00029970FB6F894DEBF0FBECDBF8A836B8346
:1008B00019828A81882309F05EC08B81282F30E05D
:1008C00039872887888599858130910521F1288588
:1008D0003985223031052CF488859985009761F09F
:1008E00047C0288539852230310521F188859985D1
:1008F0008330910571F13CC0A5E5B0E0E5E5F0E09D
:1009000080818E7F8C93A5E5B0E0E5E5F0E0808105
:100910008D7F8C93B7C0A5E5B0E0E5E5F0E0808180
:1009200081608C93A5E5B0E0E5E5F0E080818D7F06
:100930008C93A8C0A5E5B0E0E5E5F0E080818E7F6E
:100940008C93A5E5B0E0E5E5F0E0808182608C93D2
:1009500099C0A5E5B0E0E5E5F0E0808181608C9389
:10096000A5E5B0E0E5E5F0E0808182608C938AC087
:1009700081E0898387C08A81813009F05EC08B81E4
:10098000282F30E03F832E838E819F818130910517
:1009900021F12E813F81223031052CF48E819F81FF
:1009A000009761F047C02E813F812230310521F14F
:1009B0008E819F818330910571F13CC0A5E5B0E047
:1009C000E5E5F0E080818B7F8C93A5E5B0E0E5E57F
:1009D000F0E08081877F8C9355C0A5E5B0E0E5E528
:1009E000F0E0808184608C93A5E5B0E0E5E5F0E07F
:1009F0008081877F8C9346C0A5E5B0E0E5E5F0E017
:100A000080818B7F8C93A5E5B0E0E5E5F0E0808107
:100A100088608C9337C0A5E5B0E0E5E5F0E0808123
:100A200084608C93A5E5B0E0E5E5F0E08081886026
:100A30008C9328C081E0898325C08A81823011F59A
:100A40008B81282F30E03D832C838C819D818230E7
:100A5000910531F02C813D812330310549F010C0E2
:100A6000A4E5B0E0E4E5F0E080818F7B8C930AC0E0
:100A7000A4E5B0E0E4E5F0E0808180648C9302C0FE
:100A800081E08983898129960FB6F894DEBF0FBE75
:100A9000CDBFCF91DF910895DF93CF9300D000D0E9
:100AA000CDB7DEB78A8319828A81282F30E03C8354
:100AB0002B838B819C818130910589F02B813C8136
:100AC00022303105A1F08B819C810097C1F4ABE508
:100AD000B0E0EBE5F0E0808180648C9312C0ABE580
:100AE000B0E0EBE5F0E0808180688C930AC0ABE574
:100AF000B0E0EBE5F0E0808180628C9302C081E0A1
:100B0000898389810F900F900F900F90CF91DF9183
:100B10000895DF93CF9300D000D0CDB7DEB78A839E
:100B200019828A81282F30E03C832B838B819C8122
:100B30008130910589F02B813C8122303105A1F073
:100B40008B819C810097C1F4ABE5B0E0EBE5F0E070
:100B500080818F7B8C9312C0ABE5B0E0EBE5F0E0D9
:100B600080818F778C930AC0ABE5B0E0EBE5F0E0D5
:100B700080818F7D8C9302C081E0898389810F9071
:100B80000F900F900F90CF91DF910895DF93CF9347
:100B900000D000D0CDB7DEB78A837C836B83198207
:100BA0008B819C810097C9F08A81882331F08A81EA
:100BB000813019F08A81823069F48A81882F90E02F
:100BC0002B813C81880F991FFC01E658FF4F318330
:100BD000208305C081E0898302C082E08983898106
:100BE0000F900F900F900F90CF91DF9108951F926B
:100BF0000F920FB60F9211242F933F934F935F9351
:100C00006F937F938F939F93AF93BF93EF93FF93D4
:100C1000DF93CF93CDB7DEB780917A0090917B00C0
:100C2000009729F0E0917A00F0917B000995CF912F
:100C3000DF91FF91EF91BF91AF919F918F917F9144
:100C40006F915F914F913F912F910F900FBE0F9039
:100C50001F9018951F920F920FB60F9211242F9389
:100C60003F934F935F936F937F938F939F93AF9334
:100C7000BF93EF93FF93DF93CF93CDB7DEB7809110
:100C80007C0090917D00009729F0E0917C00F0912C
:100C90007D000995CF91DF91FF91EF91BF91AF91C9
:100CA0009F918F917F916F915F914F913F912F9184
:100CB0000F900FBE0F901F9018951F920F920FB6B6
:100CC0000F9211242F933F934F935F936F937F93D2
:100CD0008F939F93AF93BF93EF93FF93DF93CF9344
:100CE000CDB7DEB780917E0090917F00009729F00C
:100CF000E0917E00F0917F000995CF91DF91FF9107
:100D0000EF91BF91AF919F918F917F916F915F9183
:100D10004F913F912F910F900FBE0F901F901895FC
:100D2000DF93CF93CDB7DEB77894CF91DF9108955D
:100D3000DF93CF93CDB7DEB7F894CF91DF910895CD
:100D4000DF93CF9300D00F92CDB7DEB79B838A831A
:100D500019828A819B81009719F1EA81FB81808148
:100D6000882359F4EA81FB818181EA81FB819281A8
:100D7000692F41E00E94520115C0EA81FB81808108
:100D8000813059F4EA81FB818181EA81FB81928182
:100D9000692F40E00E94520105C081E0898302C0B2
:100DA00082E0898389810F900F900F90CF91DF911E
:100DB0000895DF93CF9300D00F92CDB7DEB79B831A
:100DC0008A8319828A819B81009719F1EA81FB81CC
:100DD0008081882359F4EA81FB818181EA81FB814A
:100DE0009281692F40E00E94520115C0EA81FB8187
:100DF0008081813059F4EA81FB818181EA81FB8124
:100E00009281692F41E00E94520105C081E08983EF
:100E100002C082E0898389810F900F900F90CF915B
:100E2000DF910895DF93CF9300D00F92CDB7DEB757
:100E30009B838A8319828A819B81009751F0EA8182
:100E4000FB818181EA81FB819281692F0E94860367
:100E500002C082E0898389810F900F900F90CF911B
:100E6000DF910895DF93CF93CDB7DEB7EAE3F0E0EB
:100E70008EE78083E7E3F0E08BEF8083E4E3F0E04C
:100E80008FEF8083E1E3F0E080E38083EBE3F0E049
:100E90001082E8E3F0E01082E5E3F0E01082E2E3A4
:100EA000F0E084E08083CF91DF910895DF93CF93CA
:100EB00000D000D000D0CDB7DEB79C838B837E837B
:100EC0006D831982EB81FC818181EB81FC819281B0
:100ED0009E012E5F3F4F692FA9010E945B028B810B
:100EE0009C81009741F18D819E81009721F1EB81DA
:100EF000FC818081882361F48A81882321F4ED813B
:100F0000FE81108218C0ED81FE8181E0808313C0D4
:100F1000EB81FC818081813061F48A81813021F410
:100F2000ED81FE81108207C0ED81FE8181E080832A
:100F300002C081E08983898126960FB6F894DEBFCE
:100F40000FBECDBFCF91DF910895DF93CF93CDB783
:100F5000DEB729970FB6F894DEBF0FBECDBF9B83D7
:100F60008A8319828A819B81009709F44AC1EA81A8
:100F7000FB818081282F30E03987288788859985F3
:100F80008130910521F128853985223031052CF4F5
:100F900088859985009761F047C02885398522307A
:100FA000310521F1888599858330910571F13CC027
:100FB000A3E5B0E0E3E5F0E080818F7B8C93A3E5CF
:100FC000B0E0E3E5F0E08081877F8C932FC0A3E55C
:100FD000B0E0E3E5F0E080818F7B8C93A3E5B0E0A7
:100FE000E3E5F0E0808188608C9320C0A3E5B0E069
:100FF000E3E5F0E0808180648C93A3E5B0E0E3E575
:10100000F0E0808188608C9311C0A3E5B0E0E3E557
:10101000F0E0808180648C93A3E5B0E0E3E5F0E04C
:101020008081877F8C9302C081E08983EA81FB8184
:101030008381282F30E03F832E838E819F818130F2
:10104000910589F02E813F8122303105A1F08E81FA
:101050009F810097F9F4A9E5B0E0E9E5F0E080812F
:1010600081608C9319C0A9E5B0E0E9E5F0E08081EA
:1010700082608C9311C0A9E5B0E0E9E5F0E08081E1
:101080008E7F8C93A9E5B0E0E9E5F0E080818D7F6B
:101090008C9302C081E08983EA81FB818281282FC1
:1010A00030E03D832C838C819D818330910509F450
:1010B0005AC02C813D81243031057CF48C819D8186
:1010C0008130910591F12C813D8122303105E4F58B
:1010D0008C819D810097D1F091C02C813D8125307C
:1010E000310509F45EC08C819D81853091050CF439
:1010F00049C02C813D812630310509F461C08C81C5
:101100009D818730910509F46AC078C0A3E5B0E0FD
:10111000E3E5F0E080818F7E8C93A3E5B0E0E3E52A
:10112000F0E080818F7D8C936EC0A3E5B0E0E3E5B5
:10113000F0E0808180618C93A3E5B0E0E3E5F0E02E
:1011400080818F7D8C935FC0A3E5B0E0E3E5F0E0A4
:1011500080818F7E8C93A3E5B0E0E3E5F0E08081B1
:1011600080628C9350C0A3E5B0E0E3E5F0E08081BD
:1011700080618C93A3E5B0E0E3E5F0E080818062DC
:101180008C9341C0A3E5B0E0E3E5F0E080818F7E81
:101190008C93A3E5B0E0E3E5F0E0808180628C937E
:1011A00032C0A3E5B0E0E3E5F0E0808180618C939C
:1011B000A3E5B0E0E3E5F0E0808180628C9323C09A
:1011C000A3E5B0E0E3E5F0E080818F7E8C93A3E5BA
:1011D000B0E0E3E5F0E0808180628C9314C0A3E589
:1011E000B0E0E3E5F0E0808180618C93A3E5B0E0BE
:1011F000E3E5F0E0808180628C9305C081E0898323
:1012000002C082E08983A3E5B0E0E3E5F0E08081FD
:10121000887F8C93A3E5B0E0E3E5F0E09081EA817C
:10122000FB818181892B8C93898129960FB6F89453
:10123000DEBF0FBECDBFCF91DF910895DF93CF9377
:1012400000D000D0CDB7DEB78A837C836B83198250
:101250008B819C81009769F08A81882F90E0880FAC
:10126000991FFC01E058FF4F8B819C819183808303
:1012700002C082E0898389810F900F900F900F90B8
:10128000CF91DF910895DF93CF930F92CDB7DEB763
:101290008983E2E5F0E0898180830F90CF91DF912F
:1012A0000895DF93CF930F92CDB7DEB78983ECE536
:1012B000F0E0898180830F90CF91DF910895DF93D3
:1012C000CF930F92CDB7DEB78983A3E5B0E0E3E516
:1012D000F0E08081887F8C93A3E5B0E0E3E5F0E067
:1012E00090818981892B8C930F90CF91DF91089504
:1012F000DF93CF9300D000D0CDB7DEB78A831982B9
:101300008A81282F30E03C832B838B819C81833022
:10131000910509F45AC02B813C81243031057CF4BD
:101320008B819C818130910591F12B813C81223010
:101330003105E4F58B819C810097D1F091C02B8120
:101340003C812530310509F45EC08B819C8185305C
:1013500091050CF449C02B813C812630310509F4FC
:1013600061C08B819C818730910509F46AC078C087
:10137000A3E5B0E0E3E5F0E080818F7E8C93A3E508
:10138000B0E0E3E5F0E080818F7D8C936BC0A3E556
:10139000B0E0E3E5F0E0808180618C93A3E5B0E00C
:1013A000E3E5F0E080818F7D8C935CC0A3E5B0E045
:1013B000E3E5F0E080818F7E8C93A3E5B0E0E3E588
:1013C000F0E0808180628C934DC0A3E5B0E0E3E55E
:1013D000F0E0808180618C93A3E5B0E0E3E5F0E08C
:1013E000808180628C933EC0A3E5B0E0E3E5F0E04D
:1013F00080818F7E8C93A3E5B0E0E3E5F0E080810F
:1014000080628C932FC0A3E5B0E0E3E5F0E080813B
:1014100080618C93A3E5B0E0E3E5F0E08081806239
:101420008C9320C0A3E5B0E0E3E5F0E080818F7EFF
:101430008C93A3E5B0E0E3E5F0E0808180628C93DB
:1014400011C0A3E5B0E0E3E5F0E0808180618C931A
:10145000A3E5B0E0E3E5F0E0808180628C9302C018
:1014600081E0898389810F900F900F900F90CF9129
:10147000DF910895DF93CF93CDB7DEB760970FB6B6
:10148000F894DEBF0FBECDBF9B838A8319828A8109
:101490009B81009709F4DAC3EA81FB818081282FC0
:1014A00030E03F872E878E859F858730910509F430
:1014B000F2C02E853F85283031054CF58E859F85FD
:1014C0008330910509F490C02E853F852430310585
:1014D0008CF48E859F858130910509F459C02E8545
:1014E0003F85223031050CF069C08E859F850097BD
:1014F000C9F17EC12E853F852530310509F49FC095
:101500008E859F85863091050CF0AFC082C02E85F8
:101510003F852B30310509F415C18E859F858C30B0
:1015200091056CF42E853F852930310509F4DEC024
:101530008E859F858A3091050CF0EEC0C1C02E8546
:101540003F852D30310509F428C18E859F858D306A
:1015500091050CF40CC12E853F852E30310509F420
:1015600032C146C1AFE4B0E0EFE4F0E080818C7FAF
:101570008C93AEE4B0E0EEE4F0E080818F7E8C935B
:10158000AEE4B0E0EEE4F0E08081877F8C9332C17E
:10159000AFE4B0E0EFE4F0E080818D7F8C93AEE4C7
:1015A000B0E0EEE4F0E08081877F8C93AEE4B0E0C1
:1015B000EEE4F0E080818F7E8C931CC1AFE4B0E05C
:1015C000EFE4F0E080818E7F8C93AEE4B0E0EEE457
:1015D000F0E08081877F8C93AEE4B0E0EEE4F0E051
:1015E00080818F7E8C9306C1AFE4B0E0EFE4F0E041
:1015F00080818C93AEE4B0E0EEE4F0E08081877F00
:101600008C93AEE4B0E0EEE4F0E080818F7E8C93CA
:10161000F1C0AFE4B0E0EFE4F0E080818C7F8C9328
:10162000AEE4B0E0EEE4F0E0808188608C93AEE45C
:10163000B0E0EEE4F0E080818F7E8C93DBC0AFE41D
:10164000B0E0EFE4F0E080818D7F8C93AEE4B0E019
:10165000EEE4F0E0808188608C93AEE4B0E0EEE4EC
:10166000F0E080818F7E8C93C5C0AFE4B0E0EFE402
:10167000F0E080818E7F8C93AEE4B0E0EEE4F0E0A9
:10168000808188608C93AEE4B0E0EEE4F0E080818D
:101690008F7E8C93AFC0AFE4B0E0EFE4F0E08081E8
:1016A0008C93AEE4B0E0EEE4F0E0808188608C934F
:1016B000AEE4B0E0EEE4F0E080818F7E8C939AC0DF
:1016C000AFE4B0E0EFE4F0E080818C7F8C93AEE497
:1016D000B0E0EEE4F0E08081877F8C93AEE4B0E090
:1016E000EEE4F0E0808180618C9384C0AFE4B0E0F0
:1016F000EFE4F0E080818D7F8C93AEE4B0E0EEE427
:10170000F0E08081877F8C93AEE4B0E0EEE4F0E01F
:10171000808180618C936EC0AFE4B0E0EFE4F0E0D4
:1017200080818E7F8C93AEE4B0E0EEE4F0E08081C7
:10173000877F8C93AEE4B0E0EEE4F0E080818061DE
:101740008C9358C0AFE4B0E0EFE4F0E080818C937C
:10175000AEE4B0E0EEE4F0E08081877F8C93AEE40D
:10176000B0E0EEE4F0E0808180618C9343C0AFE4B0
:10177000B0E0EFE4F0E080818C7F8C93AEE4B0E0E9
:10178000EEE4F0E0808188608C93AEE4B0E0EEE4BB
:10179000F0E0808180618C932DC0AFE4B0E0EFE495
:1017A000F0E080818E7F8C93AEE4B0E0EEE4F0E078
:1017B000808188608C93AEE4B0E0EEE4F0E080815C
:1017C00080618C9317C0AFE4B0E0EFE4F0E080817B
:1017D0008C93AEE4B0E0EEE4F0E0808188608C931E
:1017E000AEE4B0E0EEE4F0E0808180618C9302C072
:1017F00081E08983EA81FB818181282F30E03D8768
:101800002C878C859D858330910509F45AC02C85E1
:101810003D85243031057CF48C859D858130910592
:1018200091F12C853D8522303105E4F58C859D852F
:101830000097D1F091C02C853D852530310509F404
:101840005EC08C859D85853091050CF449C02C8542
:101850003D852630310509F461C08C859D85873032
:10186000910509F46AC078C0AFE4B0E0EFE4F0E0BD
:1018700080818F778C93AFE4B0E0EFE4F0E080817B
:101880008F7B8C936BC0AFE4B0E0EFE4F0E080813D
:101890008F778C93AFE4B0E0EFE4F0E08081806478
:1018A0008C935CC0AFE4B0E0EFE4F0E0808180684E
:1018B0008C93AFE4B0E0EFE4F0E080818F7B8C9319
:1018C0004DC0AFE4B0E0EFE4F0E0808180688C933D
:1018D000AFE4B0E0EFE4F0E0808180648C933EC040
:1018E000AFE4B0E0EFE4F0E0808180688C93AFE497
:1018F000B0E0EFE4F0E080818F7B8C932FC0AFE409
:10190000B0E0EFE4F0E0808180688C93AFE4B0E079
:10191000EFE4F0E0808180648C9320C0AFE4B0E01D
:10192000EFE4F0E0808180688C93AFE4B0E0EFE416
:10193000F0E080818F7B8C9311C0AFE4B0E0EFE4E6
:10194000F0E0808180688C93AFE4B0E0EFE4F0E0F9
:10195000808180648C9302C081E08983EA81FB816D
:101960008281282F30E03B872A878A859B858330B8
:10197000910509F45AC02A853B85243031057CF451
:101980008A859B858130910591F12A853B8522309E
:101990003105E4F58A859B850097D1F091C02A85B1
:1019A0003B852530310509F45EC08A859B858530ED
:1019B00091050CF449C02A853B852630310509F490
:1019C00061C08A859B858730910509F46AC078C01B
:1019D000AFE4B0E0EFE4F0E080818F7D8C93AFE482
:1019E000B0E0EFE4F0E080818F7E8C936BC0AFE4D9
:1019F000B0E0EFE4F0E080818F7D8C93AFE4B0E065
:101A0000EFE4F0E0808180618C935CC0AFE4B0E0F3
:101A1000EFE4F0E0808180628C93AFE4B0E0EFE42B
:101A2000F0E080818F7E8C934DC0AFE4B0E0EFE4B6
:101A3000F0E0808180628C93AFE4B0E0EFE4F0E00E
:101A4000808180618C933EC0AFE4B0E0EFE4F0E0D1
:101A5000808180628C93AFE4B0E0EFE4F0E08081BD
:101A60008F7E8C932FC0AFE4B0E0EFE4F0E0808194
:101A700080628C93AFE4B0E0EFE4F0E080818061BD
:101A80008C9320C0AFE4B0E0EFE4F0E080818062AE
:101A90008C93AFE4B0E0EFE4F0E080818F7E8C9334
:101AA00011C0AFE4B0E0EFE4F0E0808180628C939D
:101AB000AFE4B0E0EFE4F0E0808180618C9302C09D
:101AC00081E08983EA81FB818481282F30E0398796
:101AD0002887888599858130910589F02885398501
:101AE00022303105B1F088859985009781F4AEE404
:101AF000B0E0EEE4F0E080818F7B8C930AC0AEE42E
:101B0000B0E0EEE4F0E0808180648C9302C081E07C
:101B10008983EA81FB818581282F30E03F832E83F2
:101B20008E819F81009731F02E813F8121303105D8
:101B300049F010C0AEE4B0E0EEE4F0E080818068EF
:101B40008C930AC0AEE4B0E0EEE4F0E080818F77E1
:101B50008C9302C081E08983EA81FB818681282FF2
:101B600030E03D832C838C819D818230910579F119
:101B70002C813D812330310554F48C819D81009767
:101B8000B1F02C813D8121303105C9F05CC08C81E0
:101B90009D818430910591F12C813D812430310566
:101BA000F4F08C819D818530910581F14CC0A9E5CF
:101BB000B0E0E9E5F0E0808180628C9349C0A9E55E
:101BC000B0E0E9E5F0E0808180618C9341C0A9E557
:101BD000B0E0E9E5F0E0808188608C9339C0A9E548
:101BE000B0E0E9E5F0E0808180618C93A9E5B0E0A8
:101BF000E9E5F0E0808188608C932AC0A9E5B0E037
:101C0000E9E5F0E0808184608C9322C0A9E5B0E032
:101C1000E9E5F0E080818F7D8C93A9E5B0E0E9E50E
:101C2000F0E080818F7E8C93A9E5B0E0E9E5F0E0FB
:101C30008081877F8C93A9E5B0E0E9E5F0E08081C1
:101C40008B7F8C9305C081E0898302C082E0898309
:101C5000AEE4B0E0EEE4F0E08081887F8C93AEE407
:101C6000B0E0EEE4F0E09081EA81FB818381892B92
:101C70008C9360960FB6F894DEBF0FBECDBFCF91A8
:101C8000DF910895DF93CF9300D0CDB7DEB79A836D
:101C90008983ECE4F0E089819A81918380830F90BD
:101CA0000F90CF91DF910895DF93CF93CDB7DEB73B
:101CB000ECE4F0E080819181CF91DF910895DF9392
:101CC000CF9300D000D000D0CDB7DEB78A837C831D
:101CD0006B8319828A81282F30E03E832D838D818A
:101CE0009E81009731F02D813E812130310541F0F8
:101CF0000EC0EAE4F0E08B819C819183808309C06F
:101D0000E8E4F0E08B819C819183808302C081E0D4
:101D10008983898126960FB6F894DEBF0FBECDBFAA
:101D2000CF91DF910895DF93CF9300D000D000D002
:101D3000CDB7DEB78A837C836B8319828A81282F93
:101D400030E03E832D838D819E81009731F02D817F
:101D50003E812130310541F00EC0EAE4F0E08B8194
:101D60009C819183808309C0E6E4F0E08B819C81B3
:101D70009183808302C081E08983898126960FB692
:101D8000F894DEBF0FBECDBFCF91DF910895DF93F2
:101D9000CF930F92CDB7DEB78983AEE4B0E0EEE427
:101DA000F0E08081887F8C93AEE4B0E0EEE4F0E078
:101DB00090818981892B8C930F90CF91DF91089529
:101DC000DF93CF9300D000D0CDB7DEB78A831982DE
:101DD0008A81282F30E03C832B838B819C81833048
:101DE000910509F45AC02B813C81243031057CF4E3
:101DF0008B819C818130910591F12B813C81223036
:101E00003105E4F58B819C810097D1F091C02B8145
:101E10003C812530310509F45EC08B819C81853081
:101E200091050CF449C02B813C812630310509F421
:101E300061C08B819C818730910509F46AC078C0AC
:101E4000AFE4B0E0EFE4F0E080818F778C93AFE413
:101E5000B0E0EFE4F0E080818F7B8C936BC0AFE467
:101E6000B0E0EFE4F0E080818F778C93AFE4B0E0F6
:101E7000EFE4F0E0808180648C935CC0AFE4B0E07C
:101E8000EFE4F0E0808180688C93AFE4B0E0EFE4B1
:101E9000F0E080818F7B8C934DC0AFE4B0E0EFE445
:101EA000F0E0808180688C93AFE4B0E0EFE4F0E094
:101EB000808180648C933EC0AFE4B0E0EFE4F0E05A
:101EC000808180688C93AFE4B0E0EFE4F0E0808143
:101ED0008F7B8C932FC0AFE4B0E0EFE4F0E0808123
:101EE00080688C93AFE4B0E0EFE4F0E08081806440
:101EF0008C9320C0AFE4B0E0EFE4F0E08081806834
:101F00008C93AFE4B0E0EFE4F0E080818F7B8C93C2
:101F100011C0AFE4B0E0EFE4F0E0808180688C9322
:101F2000AFE4B0E0EFE4F0E0808180648C9302C025
:101F300081E0898389810F900F900F900F90CF914E
:101F4000DF910895DF93CF9300D000D0CDB7DEB7F7
:101F50008A8319828A81282F30E03C832B838B81EE
:101F60009C818330910509F45AC02B813C81243037
:101F700031057CF48B819C818130910591F12B811D
:101F80003C8122303105E4F58B819C810097D1F0B2
:101F900091C02B813C812530310509F45EC08B81D5
:101FA0009C81853091050CF449C02B813C81263001
:101FB000310509F461C08B819C818730910509F45A
:101FC0006AC078C0AFE4B0E0EFE4F0E080818F7DDC
:101FD0008C93AFE4B0E0EFE4F0E080818F7E8C93EF
:101FE0006BC0AFE4B0E0EFE4F0E080818F7D8C93D4
:101FF000AFE4B0E0EFE4F0E0808180618C935CC0FE
:10200000AFE4B0E0EFE4F0E0808180628C93AFE475
:10201000B0E0EFE4F0E080818F7E8C934DC0AFE4C0
:10202000B0E0EFE4F0E0808180628C93AFE4B0E058
:10203000EFE4F0E0808180618C933EC0AFE4B0E0DB
:10204000EFE4F0E0808180628C93AFE4B0E0EFE4F5
:10205000F0E080818F7E8C932FC0AFE4B0E0EFE49E
:10206000F0E0808180628C93AFE4B0E0EFE4F0E0D8
:10207000808180618C9320C0AFE4B0E0EFE4F0E0B9
:10208000808180628C93AFE4B0E0EFE4F0E0808187
:102090008F7E8C9311C0AFE4B0E0EFE4F0E080817C
:1020A00080628C93AFE4B0E0EFE4F0E08081806187
:1020B0008C9302C081E0898389810F900F900F90EB
:1020C0000F90CF91DF910895DF93CF9300D000D090
:1020D000CDB7DEB78A8319828A81282F30E03C830E
:1020E0002B838B819C818130910589F02B813C81F0
:1020F00022303105B1F08B819C81009781F4AEE4F0
:10210000B0E0EEE4F0E080818F7B8C930AC0AEE417
:10211000B0E0EEE4F0E0808180648C9302C081E066
:10212000898389810F900F900F900F90CF91DF914D
:1021300008951F920F920FB60F9211242F933F9381
:102140004F935F936F937F938F939F93AF93BF93BF
:10215000EF93FF93DF93CF93CDB7DEB780918000ED
:1021600090918100009729F0E0918000F09181002A
:102170000995CF91DF91FF91EF91BF91AF919F9121
:102180008F917F916F915F914F913F912F910F9020
:102190000FBE0F901F9018951F920F920FB60F92BF
:1021A00011242F933F934F935F936F937F938F935C
:1021B0009F93AF93BF93EF93FF93DF93CF93CDB7ED
:1021C000DEB78091820090918300009729F0E09122
:1021D0008200F09183000995CF91DF91FF91EF91FB
:1021E000BF91AF919F918F917F916F915F914F912F
:1021F0003F912F910F900FBE0F901F9018951F9237
:102200000F920FB60F9211242F933F934F935F932A
:102210006F937F938F939F93AF93BF93EF93FF93AE
:10222000DF93CF93CDB7DEB7809184009091850086
:10223000009729F0E0918400F09185000995CF91F5
:10224000DF91FF91EF91BF91AF919F918F917F911E
:102250006F915F914F913F912F910F900FBE0F9013
:102260001F9018951F920F920FB60F9211242F9363
:102270003F934F935F936F937F938F939F93AF930E
:10228000BF93EF93FF93DF93CF93CDB7DEB78091EA
:10229000880090918900009729F0E0918800F091E2
:1022A00089000995CF91DF91FF91EF91BF91AF9197
:1022B0009F918F917F916F915F914F913F912F915E
:1022C0000F900FBE0F901F9018951F920F920FB690
:1022D0000F9211242F933F934F935F936F937F93AC
:1022E0008F939F93AF93BF93EF93FF93DF93CF931E
:1022F000CDB7DEB78091860090918700009729F0D6
:10230000E0918600F09187000995CF91DF91FF91D0
:10231000EF91BF91AF919F918F917F916F915F915D
:102320004F913F912F910F900FBE0F901F901895D6
:102330001F920F920FB60F9211242F933F934F933A
:102340005F936F937F938F939F93AF93BF93EF931D
:10235000FF93DF93CF93CDB7DEB780918A00909142
:102360008B00009729F0E0918A00F0918B0009958D
:10237000CF91DF91FF91EF91BF91AF919F918F919D
:102380007F916F915F914F913F912F910F900FBE71
:102390000F901F901895DF93CF9300D000D0CDB74A
:1023A000DEB781E0898385E08A831B8281E08C83AC
:1023B0000E943207CE0101960E94A50782ED0E947D
:1023C000510921EF31E181E0B9010E941E090E940B
:1023D000900682E790E025E730E0B9010E945607B9
:1023E000F8CFDF93CF93CDB7DEB780917700909190
:1023F0007800019690937800809377008091930005
:1024000090919400A0919500B09196000196A11D25
:10241000B11D8093930090939400A0939500B09386
:10242000960080917500882351F4109276001092E6
:102430009300109294001092950010929600809153
:102440007600882309F0F4C080919200882359F522
:1024500080E690E00E94A0068CE690E00E94A00634
:102460008091930090919400A0919500B091960076
:10247000843721E0920720E0A20720E0B20709F0AC
:10248000D7C080ED95E0909378008093770081E04D
:102490008093760010929300109294001092950011
:1024A00010929600C5C080919200813029F08091F1
:1024B0009200823009F0BCC086E690E00E94D90606
:1024C0008FE690E00E94D90680E690E00E94D9064F
:1024D00083E690E00E94D9068CE690E00E94D9063F
:1024E00089E690E00E94A00680919300909194006C
:1024F000A0919500B09196008A349105A105B1058F
:1025000049F486E690E00E9412078FE690E00E9470
:1025100012078EC08091930090919400A091950035
:10252000B091960084399105A105B10549F486E67C
:1025300090E00E9412078FE690E00E94120778C098
:102540008091930090919400A0919500B091960095
:102550008E3D9105A105B10549F486E690E00E9403
:1025600012078FE690E00E94120762C080919300EC
:1025700090919400A0919500B0919600883221E04E
:10258000920720E0A20720E0B20749F486E690E037
:102590000E9412078FE690E00E94120749C08091C6
:1025A000930090919400A0919500B091960082378D
:1025B00021E0920720E0A20720E0B20749F486E676
:1025C00090E00E9412078FE690E00E94120730C050
:1025D0008091930090919400A0919500B091960005
:1025E000833721E0920720E0A20720E0B20701F53F
:1025F00089E690E00E94D90686E690E00E94D9061E
:102600008FE690E00E94D90681E0809392008CE5ED
:1026100094E0909378008093770081E08093760037
:1026200010929300109294001092950010929600D0
:1026300080917600813009F073C08091770090918D
:10264000780021E084379207A1F486E690E00E94AA
:10265000D9068FE690E00E94D90683E690E00E94BA
:10266000A00689E690E00E94A00682E08093920096
:102670005BC0809177009091780022E0883E9207BD
:10268000A1F483E690E00E94D90689E690E00E94DA
:10269000D90686E690E00E94A0068FE690E00E94B0
:1026A000A00681E0809392003FC0809177009091D6
:1026B000780024E08C35920799F486E690E00E9439
:1026C000D9068FE690E00E94D90680E690E00E944D
:1026D000A0068CE690E00E94A0061092920024C012
:1026E000809177009091780025E0803D9207E1F499
:1026F00080E690E00E94D9068CE690E00E94D90620
:1027000086E690E00E94A0068FE690E00E94A00678
:1027100081E080939200109278001092770004C0BC
:102720001092780010927700CF91DF910895F8947D
:02273000FFCFD9
:102732000002000002020002010002030002040083
:0A274200020500030201017301000B
:00000001FF
